{
  "transactions": [
    {
      "hash": "0xe860bf064f487bb983f11eb02259a1b037908ee0fb057c0255afd7c598919ea1",
      "transactionType": "CREATE",
      "contractName": "UniswapV3PoolMockFactory",
      "contractAddress": "0x1e198e37b2d997403421c88db65cc0f9e638b00e",
      "function": null,
      "arguments": null,
      "transaction": {
        "from": "0x76b0340e50bd9883d8b2ca5fd9f52439a9e7cf58",
        "gas": "0x10f071",
        "value": "0x0",
        "input": "0x60a034606557610aec90603f8201601f191681016001600160401b038111828210176051576040528181526020810191610e2d8339519020608052604051610dc3908161006a82396080518160540152f35b634e487b7160e01b5f52604160045260245ffd5b5f80fdfe6080806040526004361015610012575f80fd5b5f3560e01c90816320b127211461012257508063a16712951461007b5763dc6fd8ab1461003d575f80fd5b34610077575f3660031901126100775760206040517f00000000000000000000000000000000000000000000000000000000000000008152f35b5f80fd5b346100775761008936610213565b909160405160208101906100b1816100a386888787610259565b03601f19810183528261027f565b5190209260405192610aec918285019385851067ffffffffffffffff86111761010e5785946100e4946102a28739610259565b03905ff58015610103576040516001600160a01b039091168152602090f35b6040513d5f823e3d90fd5b634e487b7160e01b5f52604160045260245ffd5b34610077576101c860209161013636610213565b919390928581019061014e816100a386888a87610259565b5190209385610aec916101976040519661016a8486018961027f565b848852838801946102a286396101896040519788928684019586610259565b03601f19810187528661027f565b60405194859383850197518091895e840190838201905f8252519283915e01015f815203601f19810183528261027f565b51902090604051918383019160ff60f81b83523060601b602185015260358401526055830152605582526101fd60758361027f565b905190206040516001600160a01b039091168152f35b6060906003190112610077576004356001600160a01b038116810361007757906024356001600160a01b0381168103610077579060443562ffffff811681036100775790565b6001600160a01b0391821681529116602082015262ffffff909116604082015260600190565b90601f8019910116810190811067ffffffffffffffff82111761010e5760405256fe60e0346100c857601f610aec38819003918201601f19168301916001600160401b038311848410176100cc578084926060946040528339810103126100c857610047816100e0565b906040610056602083016100e0565b9101519162ffffff831683036100c85760805260a05260c0526040516109f790816100f582396080518181816101f7015281816106ab0152610986015260a05181818160b80152818161025a0152610901015260c051818181607b015281816102cb015281816104fa015261054e0152f35b5f80fd5b634e487b7160e01b5f52604160045260245ffd5b51906001600160a01b03821682036100c85756fe6080806040526004361015610012575f80fd5b5f905f3560e01c9081630dfe16811461069957508063128acb08146101445780637adbf9731461010e5780637dc0d1d0146100e7578063d21220a7146100a25763ddca3f4314610060575f80fd5b3461009f578060031936011261009f57602060405162ffffff7f0000000000000000000000000000000000000000000000000000000000000000168152f35b80fd5b503461009f578060031936011261009f576040517f00000000000000000000000000000000000000000000000000000000000000006001600160a01b03168152602090f35b503461009f578060031936011261009f57546040516001600160a01b039091168152602090f35b503461009f57602036600319011261009f576001600160a01b036101306106da565b82546001600160a01b031916911617815580f35b346103f15760a03660031901126103f15761015d6106da565b6024359081151582036103f157604435906064356001600160a01b038116908190036103f1576084359167ffffffffffffffff83116103f157366023840112156103f15782600401359167ffffffffffffffff83116103f15736602484860101116103f157841561066f576401000276a38110159081610650575b5015610625575f546040516341976e0960e01b81526001600160a01b037f0000000000000000000000000000000000000000000000000000000000000000811660048301819052921694919290602081602481895afa9081156103e6575f916105f3575b50604051906341976e0960e01b825260208260248160018060a01b037f0000000000000000000000000000000000000000000000000000000000000000169a8b60048301525afa9182156103e6575f926105bf575b50801515806105b6575b1561058c5760ff88901d80890118975f12891561053257156104e057610301916102fc916102f76102f162ffffff7f0000000000000000000000000000000000000000000000000000000000000000168c6107ae565b8b610757565b610834565b610747565b945b87156104d25761031161096b565b935b881561047d57505f86126103f5575b50505b333b156103f157602460845f9285604051968794859363fa461e3360e01b85528b60048601528a828601526060604486015282606486015201848401378181018301859052601f01601f1916810103018183335af180156103e657604095859385926103d6575b50156103bb57506103af916103a091610726565b6103a861096b565b101561077c565b82519182526020820152f35b6103d192506103c991610726565b6103a86108e6565b6103af565b5f6103e0916106f0565b5f61038c565b6040513d5f823e3d90fd5b5f80fd5b6104399160209161040588610747565b60405163a9059cbb60e01b81526001600160a01b0390931660048401526024830152909283919082905f9082906044820190565b03925af180156103e65761044e575b80610322565b61046f9060203d602011610476575b61046781836106f0565b810190610764565b5086610448565b503d61045d565b90505f871261048e575b5050610325565b61049e9160209161040589610747565b03925af180156103e6576104b3575b80610487565b6104cb9060203d6020116104765761046781836106f0565b50866104ad565b6104da6108e6565b93610313565b6104f16105269161052c938a610834565b61052062ffffff7f000000000000000000000000000000000000000000000000000000000000000016826107ae565b90610726565b96610747565b94610303565b9091901561057b57610574916102fc916102f76102f162ffffff7f0000000000000000000000000000000000000000000000000000000000000000168c6107ae565b9594610303565b6104f161052691610574938a610834565b60405162461bcd60e51b8152602060048201526002602482015261049560f41b6044820152606490fd5b5081151561029b565b9091506020813d6020116105eb575b816105db602093836106f0565b810103126103f157519089610291565b3d91506105ce565b90506020813d60201161061d575b8161060e602093836106f0565b810103126103f157518861023c565b3d9150610601565b60405162461bcd60e51b815260206004820152600360248201526214d41360ea1b6044820152606490fd5b73fffd8963efd1fc6a506488495d951d5263988d2691501115866101d8565b60405162461bcd60e51b8152602060048201526002602482015261415360f01b6044820152606490fd5b346103f1575f3660031901126103f1577f00000000000000000000000000000000000000000000000000000000000000006001600160a01b03168152602090f35b600435906001600160a01b03821682036103f157565b90601f8019910116810190811067ffffffffffffffff82111761071257604052565b634e487b7160e01b5f52604160045260245ffd5b9190820180921161073357565b634e487b7160e01b5f52601160045260245ffd5b600160ff1b8114610733575f0390565b9190820391821161073357565b908160209103126103f1575180151581036103f15790565b1561078357565b60405162461bcd60e51b815260206004820152600360248201526249494160e81b6044820152606490fd5b9190915f838202915f19858209918380841093039280840393146108265782620f4240111561081457507fde8f6cefed634549b62c77574f722e1ac57e23f24d8fd5cb790fb65668c261399394620f4240910990828211900360fa1b910360061c170290565b634e487b71905260116020526024601cfd5b505050620f42409192500490565b91818302915f19818509938380861095039480860395146108c457848311156108ac5790829109815f0382168092046002816003021880820260020302808202600203028082026002030280820260020302808202600203028091026002030293600183805f03040190848311900302920304170290565b82634e487b715f52156003026011186020526024601cfd5b5050809250156108d2570490565b634e487b7160e01b5f52601260045260245ffd5b6040516370a0823160e01b81523060048201526020816024817f00000000000000000000000000000000000000000000000000000000000000006001600160a01b03165afa9081156103e6575f9161093c575090565b90506020813d602011610963575b81610957602093836106f0565b810103126103f1575190565b3d915061094a565b6040516370a0823160e01b81523060048201526020816024817f00000000000000000000000000000000000000000000000000000000000000006001600160a01b03165afa9081156103e6575f9161093c57509056fea26469706673582212203342b8ef2c3b663607b4cacfcc323e5746e671704acacfde7d9969471d66552464736f6c634300081c0033a26469706673582212203ba186917ecaccd9d2702139e909ca14e380abce7809df58fd505d1a6a8e401c64736f6c634300081c003360e0346100c857601f610aec38819003918201601f19168301916001600160401b038311848410176100cc578084926060946040528339810103126100c857610047816100e0565b906040610056602083016100e0565b9101519162ffffff831683036100c85760805260a05260c0526040516109f790816100f582396080518181816101f7015281816106ab0152610986015260a05181818160b80152818161025a0152610901015260c051818181607b015281816102cb015281816104fa015261054e0152f35b5f80fd5b634e487b7160e01b5f52604160045260245ffd5b51906001600160a01b03821682036100c85756fe6080806040526004361015610012575f80fd5b5f905f3560e01c9081630dfe16811461069957508063128acb08146101445780637adbf9731461010e5780637dc0d1d0146100e7578063d21220a7146100a25763ddca3f4314610060575f80fd5b3461009f578060031936011261009f57602060405162ffffff7f0000000000000000000000000000000000000000000000000000000000000000168152f35b80fd5b503461009f578060031936011261009f576040517f00000000000000000000000000000000000000000000000000000000000000006001600160a01b03168152602090f35b503461009f578060031936011261009f57546040516001600160a01b039091168152602090f35b503461009f57602036600319011261009f576001600160a01b036101306106da565b82546001600160a01b031916911617815580f35b346103f15760a03660031901126103f15761015d6106da565b6024359081151582036103f157604435906064356001600160a01b038116908190036103f1576084359167ffffffffffffffff83116103f157366023840112156103f15782600401359167ffffffffffffffff83116103f15736602484860101116103f157841561066f576401000276a38110159081610650575b5015610625575f546040516341976e0960e01b81526001600160a01b037f0000000000000000000000000000000000000000000000000000000000000000811660048301819052921694919290602081602481895afa9081156103e6575f916105f3575b50604051906341976e0960e01b825260208260248160018060a01b037f0000000000000000000000000000000000000000000000000000000000000000169a8b60048301525afa9182156103e6575f926105bf575b50801515806105b6575b1561058c5760ff88901d80890118975f12891561053257156104e057610301916102fc916102f76102f162ffffff7f0000000000000000000000000000000000000000000000000000000000000000168c6107ae565b8b610757565b610834565b610747565b945b87156104d25761031161096b565b935b881561047d57505f86126103f5575b50505b333b156103f157602460845f9285604051968794859363fa461e3360e01b85528b60048601528a828601526060604486015282606486015201848401378181018301859052601f01601f1916810103018183335af180156103e657604095859385926103d6575b50156103bb57506103af916103a091610726565b6103a861096b565b101561077c565b82519182526020820152f35b6103d192506103c991610726565b6103a86108e6565b6103af565b5f6103e0916106f0565b5f61038c565b6040513d5f823e3d90fd5b5f80fd5b6104399160209161040588610747565b60405163a9059cbb60e01b81526001600160a01b0390931660048401526024830152909283919082905f9082906044820190565b03925af180156103e65761044e575b80610322565b61046f9060203d602011610476575b61046781836106f0565b810190610764565b5086610448565b503d61045d565b90505f871261048e575b5050610325565b61049e9160209161040589610747565b03925af180156103e6576104b3575b80610487565b6104cb9060203d6020116104765761046781836106f0565b50866104ad565b6104da6108e6565b93610313565b6104f16105269161052c938a610834565b61052062ffffff7f000000000000000000000000000000000000000000000000000000000000000016826107ae565b90610726565b96610747565b94610303565b9091901561057b57610574916102fc916102f76102f162ffffff7f0000000000000000000000000000000000000000000000000000000000000000168c6107ae565b9594610303565b6104f161052691610574938a610834565b60405162461bcd60e51b8152602060048201526002602482015261049560f41b6044820152606490fd5b5081151561029b565b9091506020813d6020116105eb575b816105db602093836106f0565b810103126103f157519089610291565b3d91506105ce565b90506020813d60201161061d575b8161060e602093836106f0565b810103126103f157518861023c565b3d9150610601565b60405162461bcd60e51b815260206004820152600360248201526214d41360ea1b6044820152606490fd5b73fffd8963efd1fc6a506488495d951d5263988d2691501115866101d8565b60405162461bcd60e51b8152602060048201526002602482015261415360f01b6044820152606490fd5b346103f1575f3660031901126103f1577f00000000000000000000000000000000000000000000000000000000000000006001600160a01b03168152602090f35b600435906001600160a01b03821682036103f157565b90601f8019910116810190811067ffffffffffffffff82111761071257604052565b634e487b7160e01b5f52604160045260245ffd5b9190820180921161073357565b634e487b7160e01b5f52601160045260245ffd5b600160ff1b8114610733575f0390565b9190820391821161073357565b908160209103126103f1575180151581036103f15790565b1561078357565b60405162461bcd60e51b815260206004820152600360248201526249494160e81b6044820152606490fd5b9190915f838202915f19858209918380841093039280840393146108265782620f4240111561081457507fde8f6cefed634549b62c77574f722e1ac57e23f24d8fd5cb790fb65668c261399394620f4240910990828211900360fa1b910360061c170290565b634e487b71905260116020526024601cfd5b505050620f42409192500490565b91818302915f19818509938380861095039480860395146108c457848311156108ac5790829109815f0382168092046002816003021880820260020302808202600203028082026002030280820260020302808202600203028091026002030293600183805f03040190848311900302920304170290565b82634e487b715f52156003026011186020526024601cfd5b5050809250156108d2570490565b634e487b7160e01b5f52601260045260245ffd5b6040516370a0823160e01b81523060048201526020816024817f00000000000000000000000000000000000000000000000000000000000000006001600160a01b03165afa9081156103e6575f9161093c575090565b90506020813d602011610963575b81610957602093836106f0565b810103126103f1575190565b3d915061094a565b6040516370a0823160e01b81523060048201526020816024817f00000000000000000000000000000000000000000000000000000000000000006001600160a01b03165afa9081156103e6575f9161093c57509056fea26469706673582212203342b8ef2c3b663607b4cacfcc323e5746e671704acacfde7d9969471d66552464736f6c634300081c0033",
        "nonce": "0x4c",
        "chainId": "0x14a34"
      },
      "additionalContracts": [],
      "isFixedGasLimit": false
    },
    {
      "hash": "0x0722eff43d39ae6a5dde1562c9cf233993adde3757731796d0aee8600134c4e1",
      "transactionType": "CALL",
      "contractName": "UniswapV3PoolMockFactory",
      "contractAddress": "0x1e198e37b2d997403421c88db65cc0f9e638b00e",
      "function": "createPool(address,address,uint24)",
      "arguments": [
        "0x0A22133fd28dAf81909F38F177293c9D24a0bF6c",
        "0x758961122308004c05113DF6e8FCB8FED571B30A",
        "100"
      ],
      "transaction": {
        "from": "0x76b0340e50bd9883d8b2ca5fd9f52439a9e7cf58",
        "to": "0x1e198e37b2d997403421c88db65cc0f9e638b00e",
        "gas": "0xca982",
        "value": "0x0",
        "input": "0xa16712950000000000000000000000000a22133fd28daf81909f38f177293c9d24a0bf6c000000000000000000000000758961122308004c05113df6e8fcb8fed571b30a0000000000000000000000000000000000000000000000000000000000000064",
        "nonce": "0x4d",
        "chainId": "0x14a34"
      },
      "additionalContracts": [
        {
          "transactionType": "CREATE2",
          "address": "0x3658151f8f3083e55f2c035be5f7f0aad896e222",
          "initCode": "0x60e0346100c857601f610aec38819003918201601f19168301916001600160401b038311848410176100cc578084926060946040528339810103126100c857610047816100e0565b906040610056602083016100e0565b9101519162ffffff831683036100c85760805260a05260c0526040516109f790816100f582396080518181816101f7015281816106ab0152610986015260a05181818160b80152818161025a0152610901015260c051818181607b015281816102cb015281816104fa015261054e0152f35b5f80fd5b634e487b7160e01b5f52604160045260245ffd5b51906001600160a01b03821682036100c85756fe6080806040526004361015610012575f80fd5b5f905f3560e01c9081630dfe16811461069957508063128acb08146101445780637adbf9731461010e5780637dc0d1d0146100e7578063d21220a7146100a25763ddca3f4314610060575f80fd5b3461009f578060031936011261009f57602060405162ffffff7f0000000000000000000000000000000000000000000000000000000000000000168152f35b80fd5b503461009f578060031936011261009f576040517f00000000000000000000000000000000000000000000000000000000000000006001600160a01b03168152602090f35b503461009f578060031936011261009f57546040516001600160a01b039091168152602090f35b503461009f57602036600319011261009f576001600160a01b036101306106da565b82546001600160a01b031916911617815580f35b346103f15760a03660031901126103f15761015d6106da565b6024359081151582036103f157604435906064356001600160a01b038116908190036103f1576084359167ffffffffffffffff83116103f157366023840112156103f15782600401359167ffffffffffffffff83116103f15736602484860101116103f157841561066f576401000276a38110159081610650575b5015610625575f546040516341976e0960e01b81526001600160a01b037f0000000000000000000000000000000000000000000000000000000000000000811660048301819052921694919290602081602481895afa9081156103e6575f916105f3575b50604051906341976e0960e01b825260208260248160018060a01b037f0000000000000000000000000000000000000000000000000000000000000000169a8b60048301525afa9182156103e6575f926105bf575b50801515806105b6575b1561058c5760ff88901d80890118975f12891561053257156104e057610301916102fc916102f76102f162ffffff7f0000000000000000000000000000000000000000000000000000000000000000168c6107ae565b8b610757565b610834565b610747565b945b87156104d25761031161096b565b935b881561047d57505f86126103f5575b50505b333b156103f157602460845f9285604051968794859363fa461e3360e01b85528b60048601528a828601526060604486015282606486015201848401378181018301859052601f01601f1916810103018183335af180156103e657604095859385926103d6575b50156103bb57506103af916103a091610726565b6103a861096b565b101561077c565b82519182526020820152f35b6103d192506103c991610726565b6103a86108e6565b6103af565b5f6103e0916106f0565b5f61038c565b6040513d5f823e3d90fd5b5f80fd5b6104399160209161040588610747565b60405163a9059cbb60e01b81526001600160a01b0390931660048401526024830152909283919082905f9082906044820190565b03925af180156103e65761044e575b80610322565b61046f9060203d602011610476575b61046781836106f0565b810190610764565b5086610448565b503d61045d565b90505f871261048e575b5050610325565b61049e9160209161040589610747565b03925af180156103e6576104b3575b80610487565b6104cb9060203d6020116104765761046781836106f0565b50866104ad565b6104da6108e6565b93610313565b6104f16105269161052c938a610834565b61052062ffffff7f000000000000000000000000000000000000000000000000000000000000000016826107ae565b90610726565b96610747565b94610303565b9091901561057b57610574916102fc916102f76102f162ffffff7f0000000000000000000000000000000000000000000000000000000000000000168c6107ae565b9594610303565b6104f161052691610574938a610834565b60405162461bcd60e51b8152602060048201526002602482015261049560f41b6044820152606490fd5b5081151561029b565b9091506020813d6020116105eb575b816105db602093836106f0565b810103126103f157519089610291565b3d91506105ce565b90506020813d60201161061d575b8161060e602093836106f0565b810103126103f157518861023c565b3d9150610601565b60405162461bcd60e51b815260206004820152600360248201526214d41360ea1b6044820152606490fd5b73fffd8963efd1fc6a506488495d951d5263988d2691501115866101d8565b60405162461bcd60e51b8152602060048201526002602482015261415360f01b6044820152606490fd5b346103f1575f3660031901126103f1577f00000000000000000000000000000000000000000000000000000000000000006001600160a01b03168152602090f35b600435906001600160a01b03821682036103f157565b90601f8019910116810190811067ffffffffffffffff82111761071257604052565b634e487b7160e01b5f52604160045260245ffd5b9190820180921161073357565b634e487b7160e01b5f52601160045260245ffd5b600160ff1b8114610733575f0390565b9190820391821161073357565b908160209103126103f1575180151581036103f15790565b1561078357565b60405162461bcd60e51b815260206004820152600360248201526249494160e81b6044820152606490fd5b9190915f838202915f19858209918380841093039280840393146108265782620f4240111561081457507fde8f6cefed634549b62c77574f722e1ac57e23f24d8fd5cb790fb65668c261399394620f4240910990828211900360fa1b910360061c170290565b634e487b71905260116020526024601cfd5b505050620f42409192500490565b91818302915f19818509938380861095039480860395146108c457848311156108ac5790829109815f0382168092046002816003021880820260020302808202600203028082026002030280820260020302808202600203028091026002030293600183805f03040190848311900302920304170290565b82634e487b715f52156003026011186020526024601cfd5b5050809250156108d2570490565b634e487b7160e01b5f52601260045260245ffd5b6040516370a0823160e01b81523060048201526020816024817f00000000000000000000000000000000000000000000000000000000000000006001600160a01b03165afa9081156103e6575f9161093c575090565b90506020813d602011610963575b81610957602093836106f0565b810103126103f1575190565b3d915061094a565b6040516370a0823160e01b81523060048201526020816024817f00000000000000000000000000000000000000000000000000000000000000006001600160a01b03165afa9081156103e6575f9161093c57509056fea26469706673582212203342b8ef2c3b663607b4cacfcc323e5746e671704acacfde7d9969471d66552464736f6c634300081c00330000000000000000000000000a22133fd28daf81909f38f177293c9d24a0bf6c000000000000000000000000758961122308004c05113df6e8fcb8fed571b30a0000000000000000000000000000000000000000000000000000000000000064"
        }
      ],
      "isFixedGasLimit": false
    },
    {
      "hash": "0x7c85d65ed54839f6ccb75abf24c85a7d25cf15b2823a5a0a0308bff8444ba347",
      "transactionType": "CALL",
      "contractName": "UniswapV3PoolMockFactory",
      "contractAddress": "0x1e198e37b2d997403421c88db65cc0f9e638b00e",
      "function": "createPool(address,address,uint24)",
      "arguments": [
        "0x0A22133fd28dAf81909F38F177293c9D24a0bF6c",
        "0x8E3ff0d169062d266845aCD5FA509D68CAC348b3",
        "10000"
      ],
      "transaction": {
        "from": "0x76b0340e50bd9883d8b2ca5fd9f52439a9e7cf58",
        "to": "0x1e198e37b2d997403421c88db65cc0f9e638b00e",
        "gas": "0xca9a5",
        "value": "0x0",
        "input": "0xa16712950000000000000000000000000a22133fd28daf81909f38f177293c9d24a0bf6c0000000000000000000000008e3ff0d169062d266845acd5fa509d68cac348b30000000000000000000000000000000000000000000000000000000000002710",
        "nonce": "0x4e",
        "chainId": "0x14a34"
      },
      "additionalContracts": [
        {
          "transactionType": "CREATE2",
          "address": "0x2052e1d18741f50eb3ff4e5e6af5a02816378e29",
          "initCode": "0x60e0346100c857601f610aec38819003918201601f19168301916001600160401b038311848410176100cc578084926060946040528339810103126100c857610047816100e0565b906040610056602083016100e0565b9101519162ffffff831683036100c85760805260a05260c0526040516109f790816100f582396080518181816101f7015281816106ab0152610986015260a05181818160b80152818161025a0152610901015260c051818181607b015281816102cb015281816104fa015261054e0152f35b5f80fd5b634e487b7160e01b5f52604160045260245ffd5b51906001600160a01b03821682036100c85756fe6080806040526004361015610012575f80fd5b5f905f3560e01c9081630dfe16811461069957508063128acb08146101445780637adbf9731461010e5780637dc0d1d0146100e7578063d21220a7146100a25763ddca3f4314610060575f80fd5b3461009f578060031936011261009f57602060405162ffffff7f0000000000000000000000000000000000000000000000000000000000000000168152f35b80fd5b503461009f578060031936011261009f576040517f00000000000000000000000000000000000000000000000000000000000000006001600160a01b03168152602090f35b503461009f578060031936011261009f57546040516001600160a01b039091168152602090f35b503461009f57602036600319011261009f576001600160a01b036101306106da565b82546001600160a01b031916911617815580f35b346103f15760a03660031901126103f15761015d6106da565b6024359081151582036103f157604435906064356001600160a01b038116908190036103f1576084359167ffffffffffffffff83116103f157366023840112156103f15782600401359167ffffffffffffffff83116103f15736602484860101116103f157841561066f576401000276a38110159081610650575b5015610625575f546040516341976e0960e01b81526001600160a01b037f0000000000000000000000000000000000000000000000000000000000000000811660048301819052921694919290602081602481895afa9081156103e6575f916105f3575b50604051906341976e0960e01b825260208260248160018060a01b037f0000000000000000000000000000000000000000000000000000000000000000169a8b60048301525afa9182156103e6575f926105bf575b50801515806105b6575b1561058c5760ff88901d80890118975f12891561053257156104e057610301916102fc916102f76102f162ffffff7f0000000000000000000000000000000000000000000000000000000000000000168c6107ae565b8b610757565b610834565b610747565b945b87156104d25761031161096b565b935b881561047d57505f86126103f5575b50505b333b156103f157602460845f9285604051968794859363fa461e3360e01b85528b60048601528a828601526060604486015282606486015201848401378181018301859052601f01601f1916810103018183335af180156103e657604095859385926103d6575b50156103bb57506103af916103a091610726565b6103a861096b565b101561077c565b82519182526020820152f35b6103d192506103c991610726565b6103a86108e6565b6103af565b5f6103e0916106f0565b5f61038c565b6040513d5f823e3d90fd5b5f80fd5b6104399160209161040588610747565b60405163a9059cbb60e01b81526001600160a01b0390931660048401526024830152909283919082905f9082906044820190565b03925af180156103e65761044e575b80610322565b61046f9060203d602011610476575b61046781836106f0565b810190610764565b5086610448565b503d61045d565b90505f871261048e575b5050610325565b61049e9160209161040589610747565b03925af180156103e6576104b3575b80610487565b6104cb9060203d6020116104765761046781836106f0565b50866104ad565b6104da6108e6565b93610313565b6104f16105269161052c938a610834565b61052062ffffff7f000000000000000000000000000000000000000000000000000000000000000016826107ae565b90610726565b96610747565b94610303565b9091901561057b57610574916102fc916102f76102f162ffffff7f0000000000000000000000000000000000000000000000000000000000000000168c6107ae565b9594610303565b6104f161052691610574938a610834565b60405162461bcd60e51b8152602060048201526002602482015261049560f41b6044820152606490fd5b5081151561029b565b9091506020813d6020116105eb575b816105db602093836106f0565b810103126103f157519089610291565b3d91506105ce565b90506020813d60201161061d575b8161060e602093836106f0565b810103126103f157518861023c565b3d9150610601565b60405162461bcd60e51b815260206004820152600360248201526214d41360ea1b6044820152606490fd5b73fffd8963efd1fc6a506488495d951d5263988d2691501115866101d8565b60405162461bcd60e51b8152602060048201526002602482015261415360f01b6044820152606490fd5b346103f1575f3660031901126103f1577f00000000000000000000000000000000000000000000000000000000000000006001600160a01b03168152602090f35b600435906001600160a01b03821682036103f157565b90601f8019910116810190811067ffffffffffffffff82111761071257604052565b634e487b7160e01b5f52604160045260245ffd5b9190820180921161073357565b634e487b7160e01b5f52601160045260245ffd5b600160ff1b8114610733575f0390565b9190820391821161073357565b908160209103126103f1575180151581036103f15790565b1561078357565b60405162461bcd60e51b815260206004820152600360248201526249494160e81b6044820152606490fd5b9190915f838202915f19858209918380841093039280840393146108265782620f4240111561081457507fde8f6cefed634549b62c77574f722e1ac57e23f24d8fd5cb790fb65668c261399394620f4240910990828211900360fa1b910360061c170290565b634e487b71905260116020526024601cfd5b505050620f42409192500490565b91818302915f19818509938380861095039480860395146108c457848311156108ac5790829109815f0382168092046002816003021880820260020302808202600203028082026002030280820260020302808202600203028091026002030293600183805f03040190848311900302920304170290565b82634e487b715f52156003026011186020526024601cfd5b5050809250156108d2570490565b634e487b7160e01b5f52601260045260245ffd5b6040516370a0823160e01b81523060048201526020816024817f00000000000000000000000000000000000000000000000000000000000000006001600160a01b03165afa9081156103e6575f9161093c575090565b90506020813d602011610963575b81610957602093836106f0565b810103126103f1575190565b3d915061094a565b6040516370a0823160e01b81523060048201526020816024817f00000000000000000000000000000000000000000000000000000000000000006001600160a01b03165afa9081156103e6575f9161093c57509056fea26469706673582212203342b8ef2c3b663607b4cacfcc323e5746e671704acacfde7d9969471d66552464736f6c634300081c00330000000000000000000000000a22133fd28daf81909f38f177293c9d24a0bf6c0000000000000000000000008e3ff0d169062d266845acd5fa509d68cac348b30000000000000000000000000000000000000000000000000000000000002710"
        }
      ],
      "isFixedGasLimit": false
    },
    {
      "hash": "0xb5186f87b9256966dc950397e806c288420008b3011f420631fb3bc63356882c",
      "transactionType": "CALL",
      "contractName": "UniswapV3PoolMockFactory",
      "contractAddress": "0x1e198e37b2d997403421c88db65cc0f9e638b00e",
      "function": "createPool(address,address,uint24)",
      "arguments": [
        "0x758961122308004c05113DF6e8FCB8FED571B30A",
        "0x8E3ff0d169062d266845aCD5FA509D68CAC348b3",
        "3000"
      ],
      "transaction": {
        "from": "0x76b0340e50bd9883d8b2ca5fd9f52439a9e7cf58",
        "to": "0x1e198e37b2d997403421c88db65cc0f9e638b00e",
        "gas": "0xbf57d",
        "value": "0x0",
        "input": "0xa1671295000000000000000000000000758961122308004c05113df6e8fcb8fed571b30a0000000000000000000000008e3ff0d169062d266845acd5fa509d68cac348b30000000000000000000000000000000000000000000000000000000000000bb8",
        "nonce": "0x4f",
        "chainId": "0x14a34"
      },
      "additionalContracts": [
        {
          "transactionType": "CREATE2",
          "address": "0xc2bf4671091b0db7b2e8ee872592c4aac36f08f4",
          "initCode": "0x60e0346100c857601f610aec38819003918201601f19168301916001600160401b038311848410176100cc578084926060946040528339810103126100c857610047816100e0565b906040610056602083016100e0565b9101519162ffffff831683036100c85760805260a05260c0526040516109f790816100f582396080518181816101f7015281816106ab0152610986015260a05181818160b80152818161025a0152610901015260c051818181607b015281816102cb015281816104fa015261054e0152f35b5f80fd5b634e487b7160e01b5f52604160045260245ffd5b51906001600160a01b03821682036100c85756fe6080806040526004361015610012575f80fd5b5f905f3560e01c9081630dfe16811461069957508063128acb08146101445780637adbf9731461010e5780637dc0d1d0146100e7578063d21220a7146100a25763ddca3f4314610060575f80fd5b3461009f578060031936011261009f57602060405162ffffff7f0000000000000000000000000000000000000000000000000000000000000000168152f35b80fd5b503461009f578060031936011261009f576040517f00000000000000000000000000000000000000000000000000000000000000006001600160a01b03168152602090f35b503461009f578060031936011261009f57546040516001600160a01b039091168152602090f35b503461009f57602036600319011261009f576001600160a01b036101306106da565b82546001600160a01b031916911617815580f35b346103f15760a03660031901126103f15761015d6106da565b6024359081151582036103f157604435906064356001600160a01b038116908190036103f1576084359167ffffffffffffffff83116103f157366023840112156103f15782600401359167ffffffffffffffff83116103f15736602484860101116103f157841561066f576401000276a38110159081610650575b5015610625575f546040516341976e0960e01b81526001600160a01b037f0000000000000000000000000000000000000000000000000000000000000000811660048301819052921694919290602081602481895afa9081156103e6575f916105f3575b50604051906341976e0960e01b825260208260248160018060a01b037f0000000000000000000000000000000000000000000000000000000000000000169a8b60048301525afa9182156103e6575f926105bf575b50801515806105b6575b1561058c5760ff88901d80890118975f12891561053257156104e057610301916102fc916102f76102f162ffffff7f0000000000000000000000000000000000000000000000000000000000000000168c6107ae565b8b610757565b610834565b610747565b945b87156104d25761031161096b565b935b881561047d57505f86126103f5575b50505b333b156103f157602460845f9285604051968794859363fa461e3360e01b85528b60048601528a828601526060604486015282606486015201848401378181018301859052601f01601f1916810103018183335af180156103e657604095859385926103d6575b50156103bb57506103af916103a091610726565b6103a861096b565b101561077c565b82519182526020820152f35b6103d192506103c991610726565b6103a86108e6565b6103af565b5f6103e0916106f0565b5f61038c565b6040513d5f823e3d90fd5b5f80fd5b6104399160209161040588610747565b60405163a9059cbb60e01b81526001600160a01b0390931660048401526024830152909283919082905f9082906044820190565b03925af180156103e65761044e575b80610322565b61046f9060203d602011610476575b61046781836106f0565b810190610764565b5086610448565b503d61045d565b90505f871261048e575b5050610325565b61049e9160209161040589610747565b03925af180156103e6576104b3575b80610487565b6104cb9060203d6020116104765761046781836106f0565b50866104ad565b6104da6108e6565b93610313565b6104f16105269161052c938a610834565b61052062ffffff7f000000000000000000000000000000000000000000000000000000000000000016826107ae565b90610726565b96610747565b94610303565b9091901561057b57610574916102fc916102f76102f162ffffff7f0000000000000000000000000000000000000000000000000000000000000000168c6107ae565b9594610303565b6104f161052691610574938a610834565b60405162461bcd60e51b8152602060048201526002602482015261049560f41b6044820152606490fd5b5081151561029b565b9091506020813d6020116105eb575b816105db602093836106f0565b810103126103f157519089610291565b3d91506105ce565b90506020813d60201161061d575b8161060e602093836106f0565b810103126103f157518861023c565b3d9150610601565b60405162461bcd60e51b815260206004820152600360248201526214d41360ea1b6044820152606490fd5b73fffd8963efd1fc6a506488495d951d5263988d2691501115866101d8565b60405162461bcd60e51b8152602060048201526002602482015261415360f01b6044820152606490fd5b346103f1575f3660031901126103f1577f00000000000000000000000000000000000000000000000000000000000000006001600160a01b03168152602090f35b600435906001600160a01b03821682036103f157565b90601f8019910116810190811067ffffffffffffffff82111761071257604052565b634e487b7160e01b5f52604160045260245ffd5b9190820180921161073357565b634e487b7160e01b5f52601160045260245ffd5b600160ff1b8114610733575f0390565b9190820391821161073357565b908160209103126103f1575180151581036103f15790565b1561078357565b60405162461bcd60e51b815260206004820152600360248201526249494160e81b6044820152606490fd5b9190915f838202915f19858209918380841093039280840393146108265782620f4240111561081457507fde8f6cefed634549b62c77574f722e1ac57e23f24d8fd5cb790fb65668c261399394620f4240910990828211900360fa1b910360061c170290565b634e487b71905260116020526024601cfd5b505050620f42409192500490565b91818302915f19818509938380861095039480860395146108c457848311156108ac5790829109815f0382168092046002816003021880820260020302808202600203028082026002030280820260020302808202600203028091026002030293600183805f03040190848311900302920304170290565b82634e487b715f52156003026011186020526024601cfd5b5050809250156108d2570490565b634e487b7160e01b5f52601260045260245ffd5b6040516370a0823160e01b81523060048201526020816024817f00000000000000000000000000000000000000000000000000000000000000006001600160a01b03165afa9081156103e6575f9161093c575090565b90506020813d602011610963575b81610957602093836106f0565b810103126103f1575190565b3d915061094a565b6040516370a0823160e01b81523060048201526020816024817f00000000000000000000000000000000000000000000000000000000000000006001600160a01b03165afa9081156103e6575f9161093c57509056fea26469706673582212203342b8ef2c3b663607b4cacfcc323e5746e671704acacfde7d9969471d66552464736f6c634300081c0033000000000000000000000000758961122308004c05113df6e8fcb8fed571b30a0000000000000000000000008e3ff0d169062d266845acd5fa509d68cac348b30000000000000000000000000000000000000000000000000000000000000bb8"
        }
      ],
      "isFixedGasLimit": false
    },
    {
      "hash": "0x4c700d3f7b049ab28e3ff10f0725f743aaca251f20b4abcd2f6b74272acffeb4",
      "transactionType": "CALL",
      "contractName": "UniswapV3PoolMock",
      "contractAddress": "0x3658151f8f3083e55f2c035be5f7f0aad896e222",
      "function": "setOracle(address)",
      "arguments": ["0xC64Aab296472AD1e52eD6e9baea8A504D3000ab1"],
      "transaction": {
        "from": "0x76b0340e50bd9883d8b2ca5fd9f52439a9e7cf58",
        "to": "0x3658151f8f3083e55f2c035be5f7f0aad896e222",
        "gas": "0xec79",
        "value": "0x0",
        "input": "0x7adbf973000000000000000000000000c64aab296472ad1e52ed6e9baea8a504d3000ab1",
        "nonce": "0x50",
        "chainId": "0x14a34"
      },
      "additionalContracts": [],
      "isFixedGasLimit": false
    },
    {
      "hash": "0x512d012c2cb97b58653b9a3cda8f4f485e764d6b3cd5ff2d4e8cd6b4438815d4",
      "transactionType": "CALL",
      "contractName": "UniswapV3PoolMock",
      "contractAddress": "0x2052e1d18741f50eb3ff4e5e6af5a02816378e29",
      "function": "setOracle(address)",
      "arguments": ["0xC64Aab296472AD1e52eD6e9baea8A504D3000ab1"],
      "transaction": {
        "from": "0x76b0340e50bd9883d8b2ca5fd9f52439a9e7cf58",
        "to": "0x2052e1d18741f50eb3ff4e5e6af5a02816378e29",
        "gas": "0xec79",
        "value": "0x0",
        "input": "0x7adbf973000000000000000000000000c64aab296472ad1e52ed6e9baea8a504d3000ab1",
        "nonce": "0x51",
        "chainId": "0x14a34"
      },
      "additionalContracts": [],
      "isFixedGasLimit": false
    },
    {
      "hash": "0xa0d3cdf53acd268703f5b1f890f3acd49a452d78ab08ec977ebefe718bcfbddb",
      "transactionType": "CALL",
      "contractName": "UniswapV3PoolMock",
      "contractAddress": "0xc2bf4671091b0db7b2e8ee872592c4aac36f08f4",
      "function": "setOracle(address)",
      "arguments": ["0xC64Aab296472AD1e52eD6e9baea8A504D3000ab1"],
      "transaction": {
        "from": "0x76b0340e50bd9883d8b2ca5fd9f52439a9e7cf58",
        "to": "0xc2bf4671091b0db7b2e8ee872592c4aac36f08f4",
        "gas": "0xec79",
        "value": "0x0",
        "input": "0x7adbf973000000000000000000000000c64aab296472ad1e52ed6e9baea8a504d3000ab1",
        "nonce": "0x52",
        "chainId": "0x14a34"
      },
      "additionalContracts": [],
      "isFixedGasLimit": false
    },
    {
      "hash": "0x417273619972ef158484c58cf72e68f4d2312c45afba0bf2fe4edaf9750680b0",
      "transactionType": "CALL",
      "contractName": null,
      "contractAddress": "0x0a22133fd28daf81909f38f177293c9d24a0bf6c",
      "function": "mint(address,uint256)",
      "arguments": [
        "0x3658151F8f3083E55f2C035Be5f7F0AAd896e222",
        "10000000000000000000000000"
      ],
      "transaction": {
        "from": "0x76b0340e50bd9883d8b2ca5fd9f52439a9e7cf58",
        "to": "0x0a22133fd28daf81909f38f177293c9d24a0bf6c",
        "gas": "0x1317d",
        "value": "0x0",
        "input": "0x40c10f190000000000000000000000003658151f8f3083e55f2c035be5f7f0aad896e222000000000000000000000000000000000000000000084595161401484a000000",
        "nonce": "0x53",
        "chainId": "0x14a34"
      },
      "additionalContracts": [],
      "isFixedGasLimit": false
    },
    {
      "hash": "0xa4997ce115189c3049811d00c6eda758f6cfbe037b3ec3e63e3c271a0907f0a0",
      "transactionType": "CALL",
      "contractName": null,
      "contractAddress": "0x758961122308004c05113df6e8fcb8fed571b30a",
      "function": "mint(address,uint256)",
      "arguments": [
        "0x3658151F8f3083E55f2C035Be5f7F0AAd896e222",
        "10000000000000000000000000"
      ],
      "transaction": {
        "from": "0x76b0340e50bd9883d8b2ca5fd9f52439a9e7cf58",
        "to": "0x758961122308004c05113df6e8fcb8fed571b30a",
        "gas": "0x1317d",
        "value": "0x0",
        "input": "0x40c10f190000000000000000000000003658151f8f3083e55f2c035be5f7f0aad896e222000000000000000000000000000000000000000000084595161401484a000000",
        "nonce": "0x54",
        "chainId": "0x14a34"
      },
      "additionalContracts": [],
      "isFixedGasLimit": false
    },
    {
      "hash": "0xa8e06a7d7219955296cd1588a961c1d11a74d41e17f6d73402ec64351218b2a7",
      "transactionType": "CALL",
      "contractName": null,
      "contractAddress": "0x0a22133fd28daf81909f38f177293c9d24a0bf6c",
      "function": "mint(address,uint256)",
      "arguments": [
        "0x2052E1D18741F50EB3Ff4E5E6af5a02816378e29",
        "10000000000000000000000000"
      ],
      "transaction": {
        "from": "0x76b0340e50bd9883d8b2ca5fd9f52439a9e7cf58",
        "to": "0x0a22133fd28daf81909f38f177293c9d24a0bf6c",
        "gas": "0x1317d",
        "value": "0x0",
        "input": "0x40c10f190000000000000000000000002052e1d18741f50eb3ff4e5e6af5a02816378e29000000000000000000000000000000000000000000084595161401484a000000",
        "nonce": "0x55",
        "chainId": "0x14a34"
      },
      "additionalContracts": [],
      "isFixedGasLimit": false
    },
    {
      "hash": "0xc6888008757dc0e3bb92f0697a944285a81a81411323294d51cf09f518fe384c",
      "transactionType": "CALL",
      "contractName": null,
      "contractAddress": "0x8e3ff0d169062d266845acd5fa509d68cac348b3",
      "function": "mint(address,uint256)",
      "arguments": [
        "0x2052E1D18741F50EB3Ff4E5E6af5a02816378e29",
        "10000000000000000000000000"
      ],
      "transaction": {
        "from": "0x76b0340e50bd9883d8b2ca5fd9f52439a9e7cf58",
        "to": "0x8e3ff0d169062d266845acd5fa509d68cac348b3",
        "gas": "0x1317d",
        "value": "0x0",
        "input": "0x40c10f190000000000000000000000002052e1d18741f50eb3ff4e5e6af5a02816378e29000000000000000000000000000000000000000000084595161401484a000000",
        "nonce": "0x56",
        "chainId": "0x14a34"
      },
      "additionalContracts": [],
      "isFixedGasLimit": false
    },
    {
      "hash": "0x201a4e2e67b070849d818f371699524aec778cff9033cc8473417b71a4ad65e0",
      "transactionType": "CALL",
      "contractName": null,
      "contractAddress": "0x758961122308004c05113df6e8fcb8fed571b30a",
      "function": "mint(address,uint256)",
      "arguments": [
        "0xc2Bf4671091b0dB7B2e8ee872592c4Aac36f08f4",
        "10000000000000000000000000"
      ],
      "transaction": {
        "from": "0x76b0340e50bd9883d8b2ca5fd9f52439a9e7cf58",
        "to": "0x758961122308004c05113df6e8fcb8fed571b30a",
        "gas": "0x1317d",
        "value": "0x0",
        "input": "0x40c10f19000000000000000000000000c2bf4671091b0db7b2e8ee872592c4aac36f08f4000000000000000000000000000000000000000000084595161401484a000000",
        "nonce": "0x57",
        "chainId": "0x14a34"
      },
      "additionalContracts": [],
      "isFixedGasLimit": false
    },
    {
      "hash": "0xe71005b90fea84e8ef86805f1d8f917968b695b7b67b857a24a01f9ee7d4eb6d",
      "transactionType": "CALL",
      "contractName": null,
      "contractAddress": "0x8e3ff0d169062d266845acd5fa509d68cac348b3",
      "function": "mint(address,uint256)",
      "arguments": [
        "0xc2Bf4671091b0dB7B2e8ee872592c4Aac36f08f4",
        "10000000000000000000000000"
      ],
      "transaction": {
        "from": "0x76b0340e50bd9883d8b2ca5fd9f52439a9e7cf58",
        "to": "0x8e3ff0d169062d266845acd5fa509d68cac348b3",
        "gas": "0x1317d",
        "value": "0x0",
        "input": "0x40c10f19000000000000000000000000c2bf4671091b0db7b2e8ee872592c4aac36f08f4000000000000000000000000000000000000000000084595161401484a000000",
        "nonce": "0x58",
        "chainId": "0x14a34"
      },
      "additionalContracts": [],
      "isFixedGasLimit": false
    }
  ],
  "receipts": [
    {
      "status": "0x1",
      "cumulativeGasUsed": "0x1ef5fc",
      "logs": [],
      "logsBloom": "0x00000000000000000000000000000000000000000000000000000000000000000000000000000000000000000000000000000000000000000000000000000000000000000000000000000000000000000000000000000000000000000000000000000000000000000000000000000000000000000000000000000000000000000000000000000000000000000000000000000000000000000000000000000000000000000000000000000000000000000000000000000000000000000000000000000000000000000000000000000000000000000000000000000000000000000000000000000000000000000000000000000000000000000000000000000000",
      "type": "0x2",
      "transactionHash": "0xe860bf064f487bb983f11eb02259a1b037908ee0fb057c0255afd7c598919ea1",
      "transactionIndex": "0xb",
      "blockHash": "0x85f5357edf8494939c2ba18757eb6d3a041a9cf0e3d418c6bf6adb952e5d3ad2",
      "blockNumber": "0x1196d87",
      "gasUsed": "0xd07ba",
      "effectiveGasPrice": "0x2fd",
      "from": "0x76b0340e50bd9883d8b2ca5fd9f52439a9e7cf58",
      "to": null,
      "contractAddress": "0x1e198e37b2d997403421c88db65cc0f9e638b00e",
      "l1BaseFeeScalar": "0x44d",
      "l1BlobBaseFee": "0x1",
      "l1BlobBaseFeeScalar": "0xa118b",
      "l1Fee": "0x93d2ab627",
      "l1GasPrice": "0x4046dbdf",
      "l1GasUsed": "0x828d"
    },
    {
      "status": "0x1",
      "cumulativeGasUsed": "0x279e67",
      "logs": [],
      "logsBloom": "0x00000000000000000000000000000000000000000000000000000000000000000000000000000000000000000000000000000000000000000000000000000000000000000000000000000000000000000000000000000000000000000000000000000000000000000000000000000000000000000000000000000000000000000000000000000000000000000000000000000000000000000000000000000000000000000000000000000000000000000000000000000000000000000000000000000000000000000000000000000000000000000000000000000000000000000000000000000000000000000000000000000000000000000000000000000000",
      "type": "0x2",
      "transactionHash": "0x0722eff43d39ae6a5dde1562c9cf233993adde3757731796d0aee8600134c4e1",
      "transactionIndex": "0xc",
      "blockHash": "0x85f5357edf8494939c2ba18757eb6d3a041a9cf0e3d418c6bf6adb952e5d3ad2",
      "blockNumber": "0x1196d87",
      "gasUsed": "0x8a86b",
      "effectiveGasPrice": "0x2fd",
      "from": "0x76b0340e50bd9883d8b2ca5fd9f52439a9e7cf58",
      "to": "0x1e198e37b2d997403421c88db65cc0f9e638b00e",
      "contractAddress": null,
      "l1BaseFeeScalar": "0x44d",
      "l1BlobBaseFee": "0x1",
      "l1BlobBaseFeeScalar": "0xa118b",
      "l1Fee": "0x7588eebe",
      "l1GasPrice": "0x4046dbdf",
      "l1GasUsed": "0x67c"
    },
    {
      "status": "0x1",
      "cumulativeGasUsed": "0x3046ea",
      "logs": [],
      "logsBloom": "0x00000000000000000000000000000000000000000000000000000000000000000000000000000000000000000000000000000000000000000000000000000000000000000000000000000000000000000000000000000000000000000000000000000000000000000000000000000000000000000000000000000000000000000000000000000000000000000000000000000000000000000000000000000000000000000000000000000000000000000000000000000000000000000000000000000000000000000000000000000000000000000000000000000000000000000000000000000000000000000000000000000000000000000000000000000000",
      "type": "0x2",
      "transactionHash": "0x7c85d65ed54839f6ccb75abf24c85a7d25cf15b2823a5a0a0308bff8444ba347",
      "transactionIndex": "0xd",
      "blockHash": "0x85f5357edf8494939c2ba18757eb6d3a041a9cf0e3d418c6bf6adb952e5d3ad2",
      "blockNumber": "0x1196d87",
      "gasUsed": "0x8a883",
      "effectiveGasPrice": "0x2fd",
      "from": "0x76b0340e50bd9883d8b2ca5fd9f52439a9e7cf58",
      "to": "0x1e198e37b2d997403421c88db65cc0f9e638b00e",
      "contractAddress": null,
      "l1BaseFeeScalar": "0x44d",
      "l1BlobBaseFee": "0x1",
      "l1BlobBaseFeeScalar": "0xa118b",
      "l1Fee": "0x767b6869",
      "l1GasPrice": "0x4046dbdf",
      "l1GasUsed": "0x68a"
    },
    {
      "status": "0x1",
      "cumulativeGasUsed": "0x38ef61",
      "logs": [],
      "logsBloom": "0x00000000000000000000000000000000000000000000000000000000000000000000000000000000000000000000000000000000000000000000000000000000000000000000000000000000000000000000000000000000000000000000000000000000000000000000000000000000000000000000000000000000000000000000000000000000000000000000000000000000000000000000000000000000000000000000000000000000000000000000000000000000000000000000000000000000000000000000000000000000000000000000000000000000000000000000000000000000000000000000000000000000000000000000000000000000",
      "type": "0x2",
      "transactionHash": "0xb5186f87b9256966dc950397e806c288420008b3011f420631fb3bc63356882c",
      "transactionIndex": "0xe",
      "blockHash": "0x85f5357edf8494939c2ba18757eb6d3a041a9cf0e3d418c6bf6adb952e5d3ad2",
      "blockNumber": "0x1196d87",
      "gasUsed": "0x8a877",
      "effectiveGasPrice": "0x2fd",
      "from": "0x76b0340e50bd9883d8b2ca5fd9f52439a9e7cf58",
      "to": "0x1e198e37b2d997403421c88db65cc0f9e638b00e",
      "contractAddress": null,
      "l1BaseFeeScalar": "0x44d",
      "l1BlobBaseFee": "0x1",
      "l1BlobBaseFeeScalar": "0xa118b",
      "l1Fee": "0x767b6869",
      "l1GasPrice": "0x4046dbdf",
      "l1GasUsed": "0x68a"
    },
    {
      "status": "0x1",
      "cumulativeGasUsed": "0x399a95",
      "logs": [],
      "logsBloom": "0x00000000000000000000000000000000000000000000000000000000000000000000000000000000000000000000000000000000000000000000000000000000000000000000000000000000000000000000000000000000000000000000000000000000000000000000000000000000000000000000000000000000000000000000000000000000000000000000000000000000000000000000000000000000000000000000000000000000000000000000000000000000000000000000000000000000000000000000000000000000000000000000000000000000000000000000000000000000000000000000000000000000000000000000000000000000",
      "type": "0x2",
      "transactionHash": "0x4c700d3f7b049ab28e3ff10f0725f743aaca251f20b4abcd2f6b74272acffeb4",
      "transactionIndex": "0xf",
      "blockHash": "0x85f5357edf8494939c2ba18757eb6d3a041a9cf0e3d418c6bf6adb952e5d3ad2",
      "blockNumber": "0x1196d87",
      "gasUsed": "0xab34",
      "effectiveGasPrice": "0x2fd",
      "from": "0x76b0340e50bd9883d8b2ca5fd9f52439a9e7cf58",
      "to": "0x3658151f8f3083e55f2c035be5f7f0aad896e222",
      "contractAddress": null,
      "l1BaseFeeScalar": "0x44d",
      "l1BlobBaseFee": "0x1",
      "l1BlobBaseFeeScalar": "0xa118b",
      "l1Fee": "0x713ae161",
      "l1GasPrice": "0x4046dbdf",
      "l1GasUsed": "0x640"
    },
    {
      "status": "0x1",
      "cumulativeGasUsed": "0x3a45c9",
      "logs": [],
      "logsBloom": "0x00000000000000000000000000000000000000000000000000000000000000000000000000000000000000000000000000000000000000000000000000000000000000000000000000000000000000000000000000000000000000000000000000000000000000000000000000000000000000000000000000000000000000000000000000000000000000000000000000000000000000000000000000000000000000000000000000000000000000000000000000000000000000000000000000000000000000000000000000000000000000000000000000000000000000000000000000000000000000000000000000000000000000000000000000000000",
      "type": "0x2",
      "transactionHash": "0x512d012c2cb97b58653b9a3cda8f4f485e764d6b3cd5ff2d4e8cd6b4438815d4",
      "transactionIndex": "0x10",
      "blockHash": "0x85f5357edf8494939c2ba18757eb6d3a041a9cf0e3d418c6bf6adb952e5d3ad2",
      "blockNumber": "0x1196d87",
      "gasUsed": "0xab34",
      "effectiveGasPrice": "0x2fd",
      "from": "0x76b0340e50bd9883d8b2ca5fd9f52439a9e7cf58",
      "to": "0x2052e1d18741f50eb3ff4e5e6af5a02816378e29",
      "contractAddress": null,
      "l1BaseFeeScalar": "0x44d",
      "l1BlobBaseFee": "0x1",
      "l1BlobBaseFeeScalar": "0xa118b",
      "l1Fee": "0x713ae161",
      "l1GasPrice": "0x4046dbdf",
      "l1GasUsed": "0x640"
    },
    {
      "status": "0x1",
      "cumulativeGasUsed": "0x3af0fd",
      "logs": [],
      "logsBloom": "0x00000000000000000000000000000000000000000000000000000000000000000000000000000000000000000000000000000000000000000000000000000000000000000000000000000000000000000000000000000000000000000000000000000000000000000000000000000000000000000000000000000000000000000000000000000000000000000000000000000000000000000000000000000000000000000000000000000000000000000000000000000000000000000000000000000000000000000000000000000000000000000000000000000000000000000000000000000000000000000000000000000000000000000000000000000000",
      "type": "0x2",
      "transactionHash": "0xa0d3cdf53acd268703f5b1f890f3acd49a452d78ab08ec977ebefe718bcfbddb",
      "transactionIndex": "0x11",
      "blockHash": "0x85f5357edf8494939c2ba18757eb6d3a041a9cf0e3d418c6bf6adb952e5d3ad2",
      "blockNumber": "0x1196d87",
      "gasUsed": "0xab34",
      "effectiveGasPrice": "0x2fd",
      "from": "0x76b0340e50bd9883d8b2ca5fd9f52439a9e7cf58",
      "to": "0xc2bf4671091b0db7b2e8ee872592c4aac36f08f4",
      "contractAddress": null,
      "l1BaseFeeScalar": "0x44d",
      "l1BlobBaseFee": "0x1",
      "l1BlobBaseFeeScalar": "0xa118b",
      "l1Fee": "0x713ae161",
      "l1GasPrice": "0x4046dbdf",
      "l1GasUsed": "0x640"
    },
    {
      "status": "0x1",
      "cumulativeGasUsed": "0x3bc1df",
      "logs": [
        {
          "address": "0x0a22133fd28daf81909f38f177293c9d24a0bf6c",
          "topics": [
            "0xddf252ad1be2c89b69c2b068fc378daa952ba7f163c4a11628f55a4df523b3ef",
            "0x0000000000000000000000000000000000000000000000000000000000000000",
            "0x0000000000000000000000003658151f8f3083e55f2c035be5f7f0aad896e222"
          ],
          "data": "0x000000000000000000000000000000000000000000084595161401484a000000",
          "blockHash": "0x85f5357edf8494939c2ba18757eb6d3a041a9cf0e3d418c6bf6adb952e5d3ad2",
          "blockNumber": "0x1196d87",
          "transactionHash": "0x417273619972ef158484c58cf72e68f4d2312c45afba0bf2fe4edaf9750680b0",
          "transactionIndex": "0x12",
          "logIndex": "0x11",
          "removed": false
        }
      ],
      "logsBloom": "0x00000000000000000000000000000000000000000000000000000000000000001000000000000000000000000020000000000000000000000000000000000000000000000000000000000008000000000000000000000000000000000000000000000000020000000000000000000800000000000000000000000010000000000000000000000000000000000000000000000000000000000000000000000000000000000000000000000000000000000000000000002000000000000000000000000002000000000200000000000000000000000000000000004000000020000000000000000000000000000000000000000000000000000000000000000000",
      "type": "0x2",
      "transactionHash": "0x417273619972ef158484c58cf72e68f4d2312c45afba0bf2fe4edaf9750680b0",
      "transactionIndex": "0x12",
      "blockHash": "0x85f5357edf8494939c2ba18757eb6d3a041a9cf0e3d418c6bf6adb952e5d3ad2",
      "blockNumber": "0x1196d87",
      "gasUsed": "0xd0e2",
      "effectiveGasPrice": "0x2fd",
      "from": "0x76b0340e50bd9883d8b2ca5fd9f52439a9e7cf58",
      "to": "0x0a22133fd28daf81909f38f177293c9d24a0bf6c",
      "contractAddress": null,
      "l1BaseFeeScalar": "0x44d",
      "l1BlobBaseFee": "0x1",
      "l1BlobBaseFeeScalar": "0xa118b",
      "l1Fee": "0x713ae161",
      "l1GasPrice": "0x4046dbdf",
      "l1GasUsed": "0x640"
    },
    {
      "status": "0x1",
      "cumulativeGasUsed": "0x3c92c1",
      "logs": [
        {
          "address": "0x758961122308004c05113df6e8fcb8fed571b30a",
          "topics": [
            "0xddf252ad1be2c89b69c2b068fc378daa952ba7f163c4a11628f55a4df523b3ef",
            "0x0000000000000000000000000000000000000000000000000000000000000000",
            "0x0000000000000000000000003658151f8f3083e55f2c035be5f7f0aad896e222"
          ],
          "data": "0x000000000000000000000000000000000000000000084595161401484a000000",
          "blockHash": "0x85f5357edf8494939c2ba18757eb6d3a041a9cf0e3d418c6bf6adb952e5d3ad2",
          "blockNumber": "0x1196d87",
          "transactionHash": "0xa4997ce115189c3049811d00c6eda758f6cfbe037b3ec3e63e3c271a0907f0a0",
          "transactionIndex": "0x13",
          "logIndex": "0x12",
          "removed": false
        }
      ],
      "logsBloom": "0x00000000000000000000000000000000000000000000000000000000000000001000000000000000000000000000000000000000000000000000000000000000000000000000000000000008000000000000000000000000000000000000000000000000020000000000000000000800000000000000000000000010000000040000000000000000000000000000000000000000000000000000000000000000100000000000000000000000000000000000000000000000000000000000000000000002000000000200000000000000000000000000000000004000000020000040000000000000000000000000000000000000000000000000000000000000",
      "type": "0x2",
      "transactionHash": "0xa4997ce115189c3049811d00c6eda758f6cfbe037b3ec3e63e3c271a0907f0a0",
      "transactionIndex": "0x13",
      "blockHash": "0x85f5357edf8494939c2ba18757eb6d3a041a9cf0e3d418c6bf6adb952e5d3ad2",
      "blockNumber": "0x1196d87",
      "gasUsed": "0xd0e2",
      "effectiveGasPrice": "0x2fd",
      "from": "0x76b0340e50bd9883d8b2ca5fd9f52439a9e7cf58",
      "to": "0x758961122308004c05113df6e8fcb8fed571b30a",
      "contractAddress": null,
      "l1BaseFeeScalar": "0x44d",
      "l1BlobBaseFee": "0x1",
      "l1BlobBaseFeeScalar": "0xa118b",
      "l1Fee": "0x713ae161",
      "l1GasPrice": "0x4046dbdf",
      "l1GasUsed": "0x640"
    },
    {
      "status": "0x1",
      "cumulativeGasUsed": "0x3d63a3",
      "logs": [
        {
          "address": "0x0a22133fd28daf81909f38f177293c9d24a0bf6c",
          "topics": [
            "0xddf252ad1be2c89b69c2b068fc378daa952ba7f163c4a11628f55a4df523b3ef",
            "0x0000000000000000000000000000000000000000000000000000000000000000",
            "0x0000000000000000000000002052e1d18741f50eb3ff4e5e6af5a02816378e29"
          ],
          "data": "0x000000000000000000000000000000000000000000084595161401484a000000",
          "blockHash": "0x85f5357edf8494939c2ba18757eb6d3a041a9cf0e3d418c6bf6adb952e5d3ad2",
          "blockNumber": "0x1196d87",
          "transactionHash": "0xa8e06a7d7219955296cd1588a961c1d11a74d41e17f6d73402ec64351218b2a7",
          "transactionIndex": "0x14",
          "logIndex": "0x13",
          "removed": false
        }
      ],
      "logsBloom": "0x00000000000000000000000000000000000000000000000000000000000000001000000000000000000000000020000000000000000000000000000000000000000000000000000000000008000000000000040000000000000000000000000200000000020000000000000000000800000000000000000000000010000800000000000000000000000000000000000000000000000000000000000000000000000000000000000000000000000000000000000000002000000000000000000000000002000000000000000000000000000000000000000000000000000020000000000000000000000000000000000000000000000000000000000000000000",
      "type": "0x2",
      "transactionHash": "0xa8e06a7d7219955296cd1588a961c1d11a74d41e17f6d73402ec64351218b2a7",
      "transactionIndex": "0x14",
      "blockHash": "0x85f5357edf8494939c2ba18757eb6d3a041a9cf0e3d418c6bf6adb952e5d3ad2",
      "blockNumber": "0x1196d87",
      "gasUsed": "0xd0e2",
      "effectiveGasPrice": "0x2fd",
      "from": "0x76b0340e50bd9883d8b2ca5fd9f52439a9e7cf58",
      "to": "0x0a22133fd28daf81909f38f177293c9d24a0bf6c",
      "contractAddress": null,
      "l1BaseFeeScalar": "0x44d",
      "l1BlobBaseFee": "0x1",
      "l1BlobBaseFeeScalar": "0xa118b",
      "l1Fee": "0x713ae161",
      "l1GasPrice": "0x4046dbdf",
      "l1GasUsed": "0x640"
    },
    {
      "status": "0x1",
      "cumulativeGasUsed": "0x3e3485",
      "logs": [
        {
          "address": "0x8e3ff0d169062d266845acd5fa509d68cac348b3",
          "topics": [
            "0xddf252ad1be2c89b69c2b068fc378daa952ba7f163c4a11628f55a4df523b3ef",
            "0x0000000000000000000000000000000000000000000000000000000000000000",
            "0x0000000000000000000000002052e1d18741f50eb3ff4e5e6af5a02816378e29"
          ],
          "data": "0x000000000000000000000000000000000000000000084595161401484a000000",
          "blockHash": "0x85f5357edf8494939c2ba18757eb6d3a041a9cf0e3d418c6bf6adb952e5d3ad2",
          "blockNumber": "0x1196d87",
          "transactionHash": "0xc6888008757dc0e3bb92f0697a944285a81a81411323294d51cf09f518fe384c",
          "transactionIndex": "0x15",
          "logIndex": "0x14",
          "removed": false
        }
      ],
      "logsBloom": "0x00000000000000000000000000000000000000000008000000000000000000000000000000000000000000000000000000000000000000000000000000000000000000040000000000000008000000000000040000000000000000000000000200000000020000000000000000000800000000000000000000000010000800000000000000000000000000000000000000000000000000000000000000000000000000000000000000000000000000000000000000000000000000000000000000000002000000000000000000000020000000000000000000000000000020000000000000000000000000000000000000000000000000000000000000000000",
      "type": "0x2",
      "transactionHash": "0xc6888008757dc0e3bb92f0697a944285a81a81411323294d51cf09f518fe384c",
      "transactionIndex": "0x15",
      "blockHash": "0x85f5357edf8494939c2ba18757eb6d3a041a9cf0e3d418c6bf6adb952e5d3ad2",
      "blockNumber": "0x1196d87",
      "gasUsed": "0xd0e2",
      "effectiveGasPrice": "0x2fd",
      "from": "0x76b0340e50bd9883d8b2ca5fd9f52439a9e7cf58",
      "to": "0x8e3ff0d169062d266845acd5fa509d68cac348b3",
      "contractAddress": null,
      "l1BaseFeeScalar": "0x44d",
      "l1BlobBaseFee": "0x1",
      "l1BlobBaseFeeScalar": "0xa118b",
      "l1Fee": "0x713ae161",
      "l1GasPrice": "0x4046dbdf",
      "l1GasUsed": "0x640"
    },
    {
      "status": "0x1",
      "cumulativeGasUsed": "0xd3cc39",
      "logs": [
        {
          "address": "0x758961122308004c05113df6e8fcb8fed571b30a",
          "topics": [
            "0xddf252ad1be2c89b69c2b068fc378daa952ba7f163c4a11628f55a4df523b3ef",
            "0x0000000000000000000000000000000000000000000000000000000000000000",
            "0x000000000000000000000000c2bf4671091b0db7b2e8ee872592c4aac36f08f4"
          ],
          "data": "0x000000000000000000000000000000000000000000084595161401484a000000",
          "blockHash": "0xe38c83e7dbf9d194fabcf5bca9870ee951c5d838a12affb93edbd5953ac2589f",
          "blockNumber": "0x1196d88",
          "transactionHash": "0x201a4e2e67b070849d818f371699524aec778cff9033cc8473417b71a4ad65e0",
          "transactionIndex": "0x9",
          "logIndex": "0x19c",
          "removed": false
        }
      ],
      "logsBloom": "0x00000000000000000000000000000000000000000000000000000000000000000000000000000000000000000000000000000000000000000000000000000000000000000000000000002008000000000000000000000000000000000000000000200000020000000000000000020800000000000000000000000010000000040000000000000000000000000000000000000000000000000000000000000000100000000000000000000000000000000000000000000000000000000000000000000002000000000000000000000000000000000000000000000000000020000040000000000000000000000000000000000000000000000000000000000000",
      "type": "0x2",
      "transactionHash": "0x201a4e2e67b070849d818f371699524aec778cff9033cc8473417b71a4ad65e0",
      "transactionIndex": "0x9",
      "blockHash": "0xe38c83e7dbf9d194fabcf5bca9870ee951c5d838a12affb93edbd5953ac2589f",
      "blockNumber": "0x1196d88",
      "gasUsed": "0xd0e2",
      "effectiveGasPrice": "0x2fd",
      "from": "0x76b0340e50bd9883d8b2ca5fd9f52439a9e7cf58",
      "to": "0x758961122308004c05113df6e8fcb8fed571b30a",
      "contractAddress": null,
      "l1BaseFeeScalar": "0x44d",
      "l1BlobBaseFee": "0x1",
      "l1BlobBaseFeeScalar": "0xa118b",
      "l1Fee": "0x71c316c9",
      "l1GasPrice": "0x40942e0a",
      "l1GasUsed": "0x640"
    },
    {
      "status": "0x1",
      "cumulativeGasUsed": "0xd49d1b",
      "logs": [
        {
          "address": "0x8e3ff0d169062d266845acd5fa509d68cac348b3",
          "topics": [
            "0xddf252ad1be2c89b69c2b068fc378daa952ba7f163c4a11628f55a4df523b3ef",
            "0x0000000000000000000000000000000000000000000000000000000000000000",
            "0x000000000000000000000000c2bf4671091b0db7b2e8ee872592c4aac36f08f4"
          ],
          "data": "0x000000000000000000000000000000000000000000084595161401484a000000",
          "blockHash": "0xe38c83e7dbf9d194fabcf5bca9870ee951c5d838a12affb93edbd5953ac2589f",
          "blockNumber": "0x1196d88",
          "transactionHash": "0xe71005b90fea84e8ef86805f1d8f917968b695b7b67b857a24a01f9ee7d4eb6d",
          "transactionIndex": "0xa",
          "logIndex": "0x19d",
          "removed": false
        }
      ],
      "logsBloom": "0x00000000000000000000000000000000000000000008000000000000000000000000000000000000000000000000000000000000000000000000000000000000000000040000000000002008000000000000000000000000000000000000000000200000020000000000000000020800000000000000000000000010000000000000000000000000000000000000000000000000000000000000000000000000000000000000000000000000000000000000000000000000000000000000000000000002000000000000000000000020000000000000000000000000000020000000000000000000000000000000000000000000000000000000000000000000",
      "type": "0x2",
      "transactionHash": "0xe71005b90fea84e8ef86805f1d8f917968b695b7b67b857a24a01f9ee7d4eb6d",
      "transactionIndex": "0xa",
      "blockHash": "0xe38c83e7dbf9d194fabcf5bca9870ee951c5d838a12affb93edbd5953ac2589f",
      "blockNumber": "0x1196d88",
      "gasUsed": "0xd0e2",
      "effectiveGasPrice": "0x2fd",
      "from": "0x76b0340e50bd9883d8b2ca5fd9f52439a9e7cf58",
      "to": "0x8e3ff0d169062d266845acd5fa509d68cac348b3",
      "contractAddress": null,
      "l1BaseFeeScalar": "0x44d",
      "l1BlobBaseFee": "0x1",
      "l1BlobBaseFeeScalar": "0xa118b",
      "l1Fee": "0x71c316c9",
      "l1GasPrice": "0x40942e0a",
      "l1GasUsed": "0x640"
    }
  ],
  "libraries": [],
  "pending": [],
  "returns": {},
  "timestamp": 1732655725,
  "chain": 84532,
  "commit": "750094b"
}